{
  "contractName": "AvRide",
  "abi": [
    {
      "inputs": [],
      "stateMutability": "nonpayable",
      "type": "constructor"
    },
    {
      "anonymous": false,
      "inputs": [
        {
          "indexed": false,
          "internalType": "address",
          "name": "accountAddress",
          "type": "address"
        }
      ],
      "name": "LogCallRide",
      "type": "event"
    },
    {
      "anonymous": false,
      "inputs": [
        {
          "indexed": false,
          "internalType": "uint256",
          "name": "carID",
          "type": "uint256"
        },
        {
          "indexed": false,
          "internalType": "address",
          "name": "carAdd",
          "type": "address"
        },
        {
          "indexed": false,
          "internalType": "uint256",
          "name": "pricePerKm",
          "type": "uint256"
        },
        {
          "indexed": false,
          "internalType": "uint256",
          "name": "freeSpace",
          "type": "uint256"
        },
        {
          "indexed": false,
          "internalType": "bool",
          "name": "Free",
          "type": "bool"
        }
      ],
      "name": "LogCarLists",
      "type": "event"
    },
    {
      "anonymous": false,
      "inputs": [
        {
          "indexed": false,
          "internalType": "uint256",
          "name": "carID",
          "type": "uint256"
        },
        {
          "indexed": false,
          "internalType": "address",
          "name": "carAdd",
          "type": "address"
        },
        {
          "indexed": false,
          "internalType": "uint256",
          "name": "pricePerKm",
          "type": "uint256"
        },
        {
          "indexed": false,
          "internalType": "uint256",
          "name": "freeSpace",
          "type": "uint256"
        },
        {
          "indexed": false,
          "internalType": "bool",
          "name": "Free",
          "type": "bool"
        }
      ],
      "name": "LogCarProfile",
      "type": "event"
    },
    {
      "anonymous": false,
      "inputs": [
        {
          "indexed": true,
          "internalType": "uint256",
          "name": "carID",
          "type": "uint256"
        },
        {
          "indexed": true,
          "internalType": "address",
          "name": "carAdd",
          "type": "address"
        },
        {
          "indexed": false,
          "internalType": "bool",
          "name": "success",
          "type": "bool"
        }
      ],
      "name": "LogNewCar",
      "type": "event"
    },
    {
      "anonymous": false,
      "inputs": [
        {
          "indexed": false,
          "internalType": "uint256",
          "name": "carID",
          "type": "uint256"
        },
        {
          "indexed": false,
          "internalType": "address",
          "name": "SCarAdd",
          "type": "address"
        },
        {
          "indexed": false,
          "internalType": "uint256",
          "name": "ridePrice",
          "type": "uint256"
        },
        {
          "indexed": false,
          "internalType": "uint256",
          "name": "seatNo",
          "type": "uint256"
        },
        {
          "indexed": false,
          "internalType": "uint256",
          "name": "freeSpace",
          "type": "uint256"
        },
        {
          "indexed": false,
          "internalType": "bool",
          "name": "Free",
          "type": "bool"
        }
      ],
      "name": "LogRideInfo",
      "type": "event"
    },
    {
      "anonymous": false,
      "inputs": [
        {
          "indexed": false,
          "internalType": "address",
          "name": "accountAddress",
          "type": "address"
        },
        {
          "indexed": false,
          "internalType": "uint256",
          "name": "ridefee",
          "type": "uint256"
        }
      ],
      "name": "LogRidePayment",
      "type": "event"
    },
    {
      "anonymous": false,
      "inputs": [
        {
          "indexed": false,
          "internalType": "uint256",
          "name": "_seatNo",
          "type": "uint256"
        }
      ],
      "name": "LogRideUpdated",
      "type": "event"
    },
    {
      "anonymous": false,
      "inputs": [
        {
          "indexed": false,
          "internalType": "uint256",
          "name": "carID",
          "type": "uint256"
        },
        {
          "indexed": false,
          "internalType": "address",
          "name": "carAdd",
          "type": "address"
        },
        {
          "indexed": false,
          "internalType": "uint256",
          "name": "pricePerKm",
          "type": "uint256"
        },
        {
          "indexed": false,
          "internalType": "uint256",
          "name": "freeSpace",
          "type": "uint256"
        },
        {
          "indexed": false,
          "internalType": "bool",
          "name": "Free",
          "type": "bool"
        }
      ],
      "name": "LogSpecificCar",
      "type": "event"
    },
    {
      "anonymous": false,
      "inputs": [
        {
          "indexed": false,
          "internalType": "uint256",
          "name": "carID",
          "type": "uint256"
        },
        {
          "indexed": false,
          "internalType": "address",
          "name": "carAdd",
          "type": "address"
        },
        {
          "indexed": false,
          "internalType": "uint256",
          "name": "pricePerKm",
          "type": "uint256"
        },
        {
          "indexed": false,
          "internalType": "uint256",
          "name": "freeSpace",
          "type": "uint256"
        },
        {
          "indexed": false,
          "internalType": "bool",
          "name": "Free",
          "type": "bool"
        }
      ],
      "name": "ProfileUpdated",
      "type": "event"
    },
    {
      "anonymous": false,
      "inputs": [
        {
          "indexed": false,
          "internalType": "uint256",
          "name": "ScarID",
          "type": "uint256"
        },
        {
          "indexed": false,
          "internalType": "uint256",
          "name": "ScarPrice",
          "type": "uint256"
        },
        {
          "indexed": false,
          "internalType": "uint256",
          "name": "Rspace",
          "type": "uint256"
        },
        {
          "indexed": false,
          "internalType": "bool",
          "name": "Rfree",
          "type": "bool"
        }
      ],
      "name": "Revert_CarUpdate",
      "type": "event"
    },
    {
      "anonymous": false,
      "inputs": [
        {
          "indexed": false,
          "internalType": "uint256",
          "name": "payment",
          "type": "uint256"
        },
        {
          "indexed": false,
          "internalType": "enum AvRide.RideStatus",
          "name": "",
          "type": "uint8"
        }
      ],
      "name": "RideCanceled",
      "type": "event"
    },
    {
      "anonymous": false,
      "inputs": [
        {
          "indexed": false,
          "internalType": "enum AvRide.RideStatus",
          "name": "",
          "type": "uint8"
        }
      ],
      "name": "RideCompletes",
      "type": "event"
    },
    {
      "anonymous": false,
      "inputs": [
        {
          "indexed": false,
          "internalType": "bool",
          "name": "rideIsConfirmed",
          "type": "bool"
        },
        {
          "indexed": false,
          "internalType": "enum AvRide.RideStatus",
          "name": "",
          "type": "uint8"
        }
      ],
      "name": "RideConfirmation",
      "type": "event"
    },
    {
      "anonymous": false,
      "inputs": [
        {
          "indexed": false,
          "internalType": "enum AvRide.RideStatus",
          "name": "",
          "type": "uint8"
        }
      ],
      "name": "RideStarts",
      "type": "event"
    },
    {
      "anonymous": false,
      "inputs": [
        {
          "indexed": false,
          "internalType": "bool",
          "name": "confirmedByCar",
          "type": "bool"
        }
      ],
      "name": "StatusReset",
      "type": "event"
    },
    {
      "anonymous": false,
      "inputs": [
        {
          "indexed": false,
          "internalType": "uint256",
          "name": "deposit",
          "type": "uint256"
        }
      ],
      "name": "TxConfirmed",
      "type": "event"
    },
    {
      "anonymous": false,
      "inputs": [
        {
          "indexed": false,
          "internalType": "uint256",
          "name": "payment",
          "type": "uint256"
        },
        {
          "indexed": false,
          "internalType": "address",
          "name": "SCar",
          "type": "address"
        }
      ],
      "name": "TxReceived",
      "type": "event"
    },
    {
      "anonymous": false,
      "inputs": [
        {
          "indexed": false,
          "internalType": "uint256",
          "name": "payment",
          "type": "uint256"
        }
      ],
      "name": "UserRefunded",
      "type": "event"
    },
    {
      "anonymous": false,
      "inputs": [
        {
          "indexed": false,
          "internalType": "uint256",
          "name": "ScarID",
          "type": "uint256"
        },
        {
          "indexed": false,
          "internalType": "uint256",
          "name": "ScarPrice",
          "type": "uint256"
        },
        {
          "indexed": false,
          "internalType": "uint256",
          "name": "Rspace",
          "type": "uint256"
        },
        {
          "indexed": false,
          "internalType": "bool",
          "name": "Rfree",
          "type": "bool"
        }
      ],
      "name": "ride_carUpdate",
      "type": "event"
    },
    {
      "stateMutability": "payable",
      "type": "fallback",
      "payable": true
    },
    {
      "inputs": [
        {
          "internalType": "uint256",
          "name": "",
          "type": "uint256"
        }
      ],
      "name": "carProfs",
      "outputs": [
        {
          "internalType": "uint256",
          "name": "carID",
          "type": "uint256"
        },
        {
          "internalType": "address payable",
          "name": "carAdd",
          "type": "address"
        },
        {
          "internalType": "uint256",
          "name": "pricePerKm",
          "type": "uint256"
        },
        {
          "internalType": "uint256",
          "name": "freeSpace",
          "type": "uint256"
        },
        {
          "internalType": "bool",
          "name": "Free",
          "type": "bool"
        }
      ],
      "stateMutability": "view",
      "type": "function",
      "constant": true
    },
    {
      "inputs": [
        {
          "internalType": "address",
          "name": "",
          "type": "address"
        }
      ],
      "name": "deposits",
      "outputs": [
        {
          "internalType": "uint256",
          "name": "",
          "type": "uint256"
        }
      ],
      "stateMutability": "view",
      "type": "function",
      "constant": true
    },
    {
      "inputs": [],
      "name": "status",
      "outputs": [
        {
          "internalType": "enum AvRide.RideStatus",
          "name": "",
          "type": "uint8"
        }
      ],
      "stateMutability": "view",
      "type": "function",
      "constant": true
    },
    {
      "inputs": [],
      "name": "user",
      "outputs": [
        {
          "internalType": "address",
          "name": "",
          "type": "address"
        }
      ],
      "stateMutability": "view",
      "type": "function",
      "constant": true
    },
    {
      "stateMutability": "payable",
      "type": "receive",
      "payable": true
    },
    {
      "inputs": [
        {
          "internalType": "address payable",
          "name": "_carAdd",
          "type": "address"
        }
      ],
      "name": "enrollCar",
      "outputs": [],
      "stateMutability": "nonpayable",
      "type": "function"
    },
    {
      "inputs": [
        {
          "internalType": "address payable",
          "name": "_carAdd",
          "type": "address"
        },
        {
          "internalType": "uint256",
          "name": "_pricePerKm",
          "type": "uint256"
        },
        {
          "internalType": "uint256",
          "name": "_freeSpace",
          "type": "uint256"
        },
        {
          "internalType": "bool",
          "name": "_Free",
          "type": "bool"
        }
      ],
      "name": "setCarProfile",
      "outputs": [],
      "stateMutability": "nonpayable",
      "type": "function"
    },
    {
      "inputs": [
        {
          "internalType": "uint256",
          "name": "_seatNo",
          "type": "uint256"
        }
      ],
      "name": "enrollUser",
      "outputs": [
        {
          "internalType": "bool",
          "name": "",
          "type": "bool"
        }
      ],
      "stateMutability": "nonpayable",
      "type": "function"
    },
    {
      "inputs": [],
      "name": "getCarProfileList",
      "outputs": [],
      "stateMutability": "nonpayable",
      "type": "function"
    },
    {
      "inputs": [
        {
          "internalType": "uint256",
          "name": "_carID",
          "type": "uint256"
        }
      ],
      "name": "selectCarReviewRide",
      "outputs": [
        {
          "internalType": "uint256",
          "name": "",
          "type": "uint256"
        },
        {
          "internalType": "address",
          "name": "",
          "type": "address"
        }
      ],
      "stateMutability": "nonpayable",
      "type": "function"
    },
    {
      "inputs": [],
      "name": "confirmRide",
      "outputs": [],
      "stateMutability": "payable",
      "type": "function",
      "payable": true
    },
    {
      "inputs": [],
      "name": "startCarRide",
      "outputs": [],
      "stateMutability": "nonpayable",
      "type": "function"
    },
    {
      "inputs": [],
      "name": "conmpleteCarRide",
      "outputs": [],
      "stateMutability": "nonpayable",
      "type": "function"
    },
    {
      "inputs": [],
      "name": "RideIsCanceled",
      "outputs": [],
      "stateMutability": "nonpayable",
      "type": "function"
    },
    {
      "inputs": [],
      "name": "userRefund",
      "outputs": [
        {
          "internalType": "bool",
          "name": "",
          "type": "bool"
        }
      ],
      "stateMutability": "payable",
      "type": "function",
      "payable": true
    }
  ],
  "bytecode": "0x608060405233600560006101000a81548173ffffffffffffffffffffffffffffffffffffffff021916908373ffffffffffffffffffffffffffffffffffffffff16021790555034801561005157600080fd5b5033600560006101000a81548173ffffffffffffffffffffffffffffffffffffffff021916908373ffffffffffffffffffffffffffffffffffffffff1602179055506131d7806100a26000396000f3fe6080604052600436106100e15760003560e01c80636579bf2f1161007f578063b08ae97011610059578063b08ae97014610279578063eb321e3614610283578063fbb64fc01461029a578063fc7e286d146102d8576100eb565b80636579bf2f146101f857806375656ebf14610221578063856e994114610238576100eb565b806321b2dc3c116100bb57806321b2dc3c1461015b5780634f8632ba146101725780635e20486b1461019d57806360f8dab7146101da576100eb565b8063027e81a1146100f0578063200d2ed2146101195780632072a39014610144576100eb565b366100eb57600080fd5b600080fd5b3480156100fc57600080fd5b5061011760048036038101906101129190612339565b610315565b005b34801561012557600080fd5b5061012e610516565b60405161013b91906123dd565b60405180910390f35b34801561015057600080fd5b50610159610529565b005b34801561016757600080fd5b506101706106c6565b005b34801561017e57600080fd5b50610187610b3a565b6040516101949190612419565b60405180910390f35b3480156101a957600080fd5b506101c460048036038101906101bf919061246a565b610b60565b6040516101d191906124b2565b60405180910390f35b6101e2610cd2565b6040516101ef91906124b2565b60405180910390f35b34801561020457600080fd5b5061021f600480360381019061021a91906124f9565b610f2e565b005b34801561022d57600080fd5b506102366111a3565b005b34801561024457600080fd5b5061025f600480360381019061025a919061246a565b611268565b60405161027095949392919061257e565b60405180910390f35b6102816112db565b005b34801561028f57600080fd5b506102986115a8565b005b3480156102a657600080fd5b506102c160048036038101906102bc919061246a565b611890565b6040516102cf9291906125d1565b60405180910390f35b3480156102e457600080fd5b506102ff60048036038101906102fa9190612626565b611b43565b60405161030c9190612653565b60405180910390f35b6001151561032282611b5b565b151514610364576040517f08c379a000000000000000000000000000000000000000000000000000000000815260040161035b906126cb565b60405180910390fd5b806000806101000a81548173ffffffffffffffffffffffffffffffffffffffff021916908373ffffffffffffffffffffffffffffffffffffffff16021790555060018060008373ffffffffffffffffffffffffffffffffffffffff1673ffffffffffffffffffffffffffffffffffffffff16815260200190815260200160002060006101000a81548160ff0219169083151502179055506002819080600181540180825580915050600190039060005260206000200160009091909190916101000a81548173ffffffffffffffffffffffffffffffffffffffff021916908373ffffffffffffffffffffffffffffffffffffffff1602179055506001600280549050610470919061271a565b6003819055508073ffffffffffffffffffffffffffffffffffffffff166003547f136a65dc713cf701ba95d990ace6dcae4357e787e5061936a50bd7bc91988024600160008573ffffffffffffffffffffffffffffffffffffffff1673ffffffffffffffffffffffffffffffffffffffff16815260200190815260200160002060009054906101000a900460ff1660405161050b91906124b2565b60405180910390a350565b601060009054906101000a900460ff1681565b60011515600660003373ffffffffffffffffffffffffffffffffffffffff1673ffffffffffffffffffffffffffffffffffffffff16815260200190815260200160002060009054906101000a900460ff1615151461058657600080fd5b6001600281111561059a57610599612366565b5b601060009054906101000a900460ff1660028111156105bc576105bb612366565b5b146105fc576040517f08c379a00000000000000000000000000000000000000000000000000000000081526004016105f39061279a565b60405180910390fd5b60011515600d60019054906101000a900460ff1615151415610653576040517f08c379a000000000000000000000000000000000000000000000000000000000815260040161064a90612806565b60405180910390fd5b6002601060006101000a81548160ff0219169083600281111561067957610678612366565b5b02179055507fe8e4b0a296bf6b47426ada98d47739996776e0dbf5e814d50de7c161bd749bf3601060009054906101000a900460ff166040516106bc91906123dd565b60405180910390a1565b60011515600660003373ffffffffffffffffffffffffffffffffffffffff1673ffffffffffffffffffffffffffffffffffffffff16815260200190815260200160002060009054906101000a900460ff1615151461072357600080fd5b6000600281111561073757610736612366565b5b601060009054906101000a900460ff16600281111561075957610758612366565b5b141561079a576040517f08c379a000000000000000000000000000000000000000000000000000000000815260040161079190612898565b60405180910390fd5b6002808111156107ad576107ac612366565b5b601060009054906101000a900460ff1660028111156107cf576107ce612366565b5b14156109275761084a600260116000600860009054906101000a900473ffffffffffffffffffffffffffffffffffffffff1673ffffffffffffffffffffffffffffffffffffffff1673ffffffffffffffffffffffffffffffffffffffff16815260200190815260200160002054611c9c90919063ffffffff16565b600e81905550600060116000600860009054906101000a900473ffffffffffffffffffffffffffffffffffffffff1673ffffffffffffffffffffffffffffffffffffffff1673ffffffffffffffffffffffffffffffffffffffff16815260200190815260200160002081905550600860009054906101000a900473ffffffffffffffffffffffffffffffffffffffff1673ffffffffffffffffffffffffffffffffffffffff166108fc600e549081150290604051600060405180830381858888f19350505050158015610921573d6000803e3d6000fd5b50610ab2565b6001600281111561093b5761093a612366565b5b601060009054906101000a900460ff16600281111561095d5761095c612366565b5b1415610ab1576109d8600460116000600860009054906101000a900473ffffffffffffffffffffffffffffffffffffffff1673ffffffffffffffffffffffffffffffffffffffff1673ffffffffffffffffffffffffffffffffffffffff16815260200190815260200160002054611c9c90919063ffffffff16565b600e81905550600060116000600860009054906101000a900473ffffffffffffffffffffffffffffffffffffffff1673ffffffffffffffffffffffffffffffffffffffff1673ffffffffffffffffffffffffffffffffffffffff16815260200190815260200160002081905550600860009054906101000a900473ffffffffffffffffffffffffffffffffffffffff1673ffffffffffffffffffffffffffffffffffffffff166108fc600e549081150290604051600060405180830381858888f19350505050158015610aaf573d6000803e3d6000fd5b505b5b6000601060006101000a81548160ff02191690836002811115610ad857610ad7612366565b5b0217905550610ae5611cb2565b610aed610cd2565b507fce76df4bd0b3cee9d29eb067abbde19a8d3efde38163f206db57cf66b5e32b72600e54601060009054906101000a900460ff16604051610b309291906128b8565b60405180910390a1565b600560009054906101000a900473ffffffffffffffffffffffffffffffffffffffff1681565b6000808211610ba4576040517f08c379a0000000000000000000000000000000000000000000000000000000008152600401610b9b9061292d565b60405180910390fd5b6001600660003373ffffffffffffffffffffffffffffffffffffffff1673ffffffffffffffffffffffffffffffffffffffff16815260200190815260200160002060006101000a81548160ff021916908315150217905550600c60405180602001604052808481525090806001815401808255809150506001900390600052602060002001600090919091909150600082015181600001555050610c4782611efa565b7fd23ffc18b24d8d5240ab9ddf338da937555b5232804791a1a532e20f49ae444133604051610c769190612419565b60405180910390a1600660003373ffffffffffffffffffffffffffffffffffffffff1673ffffffffffffffffffffffffffffffffffffffff16815260200190815260200160002060009054906101000a900460ff169050919050565b600060011515600660003373ffffffffffffffffffffffffffffffffffffffff1673ffffffffffffffffffffffffffffffffffffffff16815260200190815260200160002060009054906101000a900460ff16151514610d3157600080fd5b60016002811115610d4557610d44612366565b5b601060009054906101000a900460ff166002811115610d6757610d66612366565b5b1480610da6575060006002811115610d8257610d81612366565b5b601060009054906101000a900460ff166002811115610da457610da3612366565b5b145b610de5576040517f08c379a0000000000000000000000000000000000000000000000000000000008152600401610ddc90612999565b60405180910390fd5b47600f819055506000600560009054906101000a900473ffffffffffffffffffffffffffffffffffffffff1673ffffffffffffffffffffffffffffffffffffffff16600f54604051610e36906129ea565b60006040518083038185875af1925050503d8060008114610e73576040519150601f19603f3d011682016040523d82523d6000602084013e610e78565b606091505b5050905080610ebc576040517f08c379a0000000000000000000000000000000000000000000000000000000008152600401610eb390612a4b565b60405180910390fd5b610ec4611f6d565b6001600d60016101000a81548160ff0219169083151502179055507f6e54aa9c99b0023b934fa6985e70373b7cd0b1d51864d64e6d054289e000cc66600f54604051610f109190612653565b60405180910390a1600d60019054906101000a900460ff1691505090565b8373ffffffffffffffffffffffffffffffffffffffff1660008054906101000a900473ffffffffffffffffffffffffffffffffffffffff1673ffffffffffffffffffffffffffffffffffffffff1614610fbc576040517f08c379a0000000000000000000000000000000000000000000000000000000008152600401610fb390612ab7565b60405180910390fd5b610fc461228f565b60035481600001818152505084816020019073ffffffffffffffffffffffffffffffffffffffff16908173ffffffffffffffffffffffffffffffffffffffff16815250508381604001818152505082816060018181525050818160800190151590811515815250506000816060015114801561104857506001151581608001511515145b15611088576040517f08c379a000000000000000000000000000000000000000000000000000000000815260040161107f90612b23565b60405180910390fd5b7f1ec232913a05ea13deb656c34fcba2257af3133d127329797a0540466a96c5ff60035460008054906101000a900473ffffffffffffffffffffffffffffffffffffffff168686866040516110e1959493929190612ba2565b60405180910390a160048190806001815401808255809150506001900390600052602060002090600502016000909190919091506000820151816000015560208201518160010160006101000a81548173ffffffffffffffffffffffffffffffffffffffff021916908373ffffffffffffffffffffffffffffffffffffffff160217905550604082015181600201556060820151816003015560808201518160040160006101000a81548160ff02191690831515021790555050505050505050565b60005b6003548111611265576000600482815481106111c5576111c4612bf5565b5b906000526020600020906005020190507fa836eff10316d2ea8aed2757362caa3e719f22fd643e3551e26474f10fe011cd828260010160009054906101000a900473ffffffffffffffffffffffffffffffffffffffff16836002015484600301548560040160009054906101000a900460ff16604051611249959493929190612ba2565b60405180910390a150808061125d90612c24565b9150506111a6565b50565b6004818154811061127857600080fd5b90600052602060002090600502016000915090508060000154908060010160009054906101000a900473ffffffffffffffffffffffffffffffffffffffff16908060020154908060030154908060040160009054906101000a900460ff16905085565b60011515600660003373ffffffffffffffffffffffffffffffffffffffff1673ffffffffffffffffffffffffffffffffffffffff16815260200190815260200160002060009054906101000a900460ff1615151461133857600080fd5b60095434101561137d576040517f08c379a000000000000000000000000000000000000000000000000000000000815260040161137490612cb9565b60405180910390fd5b6001151561138961202d565b1515146113cb576040517f08c379a00000000000000000000000000000000000000000000000000000000081526004016113c290612d25565b60405180910390fd5b6000600d60016101000a81548160ff0219169083151502179055506113ee611cb2565b60095460116000600860009054906101000a900473ffffffffffffffffffffffffffffffffffffffff1673ffffffffffffffffffffffffffffffffffffffff1673ffffffffffffffffffffffffffffffffffffffff16815260200190815260200160002060008282546114619190612d45565b9250508190555060095460116000600860009054906101000a900473ffffffffffffffffffffffffffffffffffffffff1673ffffffffffffffffffffffffffffffffffffffff1673ffffffffffffffffffffffffffffffffffffffff16815260200190815260200160002054101561150e576040517f08c379a000000000000000000000000000000000000000000000000000000000815260040161150590612de7565b60405180910390fd5b7f5f2ebbe07828d064386029509d3478ea6b64f38a8a7cdffb88175bac97dbb79260116000600860009054906101000a900473ffffffffffffffffffffffffffffffffffffffff1673ffffffffffffffffffffffffffffffffffffffff1673ffffffffffffffffffffffffffffffffffffffff1681526020019081526020016000205460405161159e9190612653565b60405180910390a1565b60011515600660003373ffffffffffffffffffffffffffffffffffffffff1673ffffffffffffffffffffffffffffffffffffffff16815260200190815260200160002060009054906101000a900460ff1615151461160557600080fd5b60028081111561161857611617612366565b5b601060009054906101000a900460ff16600281111561163a57611639612366565b5b1461167a576040517f08c379a000000000000000000000000000000000000000000000000000000000815260040161167190612e53565b60405180910390fd5b600060116000600860009054906101000a900473ffffffffffffffffffffffffffffffffffffffff1673ffffffffffffffffffffffffffffffffffffffff1673ffffffffffffffffffffffffffffffffffffffff168152602001908152602001600020549050600860009054906101000a900473ffffffffffffffffffffffffffffffffffffffff1673ffffffffffffffffffffffffffffffffffffffff166108fc829081150290604051600060405180830381858888f19350505050158015611748573d6000803e3d6000fd5b50600060116000600860009054906101000a900473ffffffffffffffffffffffffffffffffffffffff1673ffffffffffffffffffffffffffffffffffffffff1673ffffffffffffffffffffffffffffffffffffffff168152602001908152602001600020819055507f7375b402b420d478e8b4b60ae254b10f692df52f78ad594d631f8d7efb54a4dc81600860009054906101000a900473ffffffffffffffffffffffffffffffffffffffff16604051611803929190612e73565b60405180910390a16000601060006101000a81548160ff0219169083600281111561183157611830612366565b5b021790555061183e611cb2565b611846610cd2565b507f03c7aa8a395b833d856fff1af84c0c386536714727217c78a66dbc55764a8166601060009054906101000a900460ff1660405161188591906123dd565b60405180910390a150565b6000806000600c6000815481106118aa576118a9612bf5565b5b9060005260206000200160405180602001604052908160008201548152505090506000600485815481106118e1576118e0612bf5565b5b90600052602060002090600502016040518060a0016040529081600082015481526020016001820160009054906101000a900473ffffffffffffffffffffffffffffffffffffffff1673ffffffffffffffffffffffffffffffffffffffff1673ffffffffffffffffffffffffffffffffffffffff16815260200160028201548152602001600382015481526020016004820160009054906101000a900460ff16151515158152505090506001151581608001511515146119d6576040517f08c379a00000000000000000000000000000000000000000000000000000000081526004016119cd90612ee8565b60405180910390fd5b806060015182600001511115611a21576040517f08c379a0000000000000000000000000000000000000000000000000000000008152600401611a1890612f7a565b60405180910390fd5b846007819055508060200151600860006101000a81548173ffffffffffffffffffffffffffffffffffffffff021916908373ffffffffffffffffffffffffffffffffffffffff16021790555080604001516009819055508060600151600a819055508060800151600b60006101000a81548160ff0219169083151502179055507f2287b8392d934f44b9ea1984a808a9c2ded2523c2cf4cf3f2b2ab1ebb098450f85600860009054906101000a900473ffffffffffffffffffffffffffffffffffffffff16600954856000015185606001518660800151604051611b0a96959493929190612f9a565b60405180910390a1600954600860009054906101000a900473ffffffffffffffffffffffffffffffffffffffff16935093505050915091565b60116020528060005260406000206000915090505481565b600060011515600160008473ffffffffffffffffffffffffffffffffffffffff1673ffffffffffffffffffffffffffffffffffffffff16815260200190815260200160002060009054906101000a900460ff1615151415611bf1576040517f08c379a0000000000000000000000000000000000000000000000000000000008152600401611be8906126cb565b60405180910390fd5b60018060008473ffffffffffffffffffffffffffffffffffffffff1673ffffffffffffffffffffffffffffffffffffffff16815260200190815260200160002060006101000a81548160ff021916908315150217905550600160008373ffffffffffffffffffffffffffffffffffffffff1673ffffffffffffffffffffffffffffffffffffffff16815260200190815260200160002060009054906101000a900460ff169050919050565b60008183611caa919061302a565b905092915050565b6000600c600081548110611cc957611cc8612bf5565b5b9060005260206000200160405180602001604052908160008201548152505090506000600460075481548110611d0257611d01612bf5565b5b90600052602060002090600502016040518060a0016040529081600082015481526020016001820160009054906101000a900473ffffffffffffffffffffffffffffffffffffffff1673ffffffffffffffffffffffffffffffffffffffff1673ffffffffffffffffffffffffffffffffffffffff16815260200160028201548152602001600382015481526020016004820160009054906101000a900460ff161515151581525050905060008060006002811115611dc357611dc2612366565b5b601060009054906101000a900460ff166002811115611de557611de4612366565b5b1415611e1157611e068460000151846060015161216290919063ffffffff16565b915060019050611e86565b60016002811115611e2557611e24612366565b5b601060009054906101000a900460ff166002811115611e4757611e46612366565b5b1415611e8557611e668460000151600a5461217890919063ffffffff16565b9150600a5484600001511015611e7f5760019050611e84565b600090505b5b5b611e96600754600954848461218e565b6000600d60006101000a81548160ff0219169083151502179055507fbc422e59db5b6ac29fcf5272b6b9e9fb486c30b27aca2fa1a4d1f24ec927624360075484604001518484604051611eec949392919061305b565b60405180910390a150505050565b6000600c600081548110611f1157611f10612bf5565b5b90600052602060002001905081816000015414611f32578181600001819055505b7ff8726c2adec3b98e17c3dad72b1c7cd7b2f8dbb07bee608c32e60690350ed27b82604051611f619190612653565b60405180910390a15050565b60011515600660003373ffffffffffffffffffffffffffffffffffffffff1673ffffffffffffffffffffffffffffffffffffffff16815260200190815260200160002060009054906101000a900460ff16151514611fca57600080fd5b6000600d60006101000a81548160ff0219169083151502179055507f64a615e844b3ea598cffe1906ef85d870df9a3bb7c9677e7abd54a5ae89c6d6d600d60009054906101000a900460ff1660405161202391906124b2565b60405180910390a1565b600080600c60008154811061204557612044612bf5565b5b9060005260206000200160405180602001604052908160008201548152505090508060000151600a5410156120af576040517f08c379a00000000000000000000000000000000000000000000000000000000081526004016120a6906130ec565b60405180910390fd5b6001600d60006101000a81548160ff0219169083151502179055506001601060006101000a81548160ff021916908360028111156120f0576120ef612366565b5b02179055507f9140cab1f8341ee35bf940fdc24f273c938cfc5c09fc3d016bb2e09146c3eb09600d60009054906101000a900460ff16601060009054906101000a900460ff1660405161214492919061310c565b60405180910390a1600d60009054906101000a900460ff1691505090565b600081836121709190612d45565b905092915050565b60008183612186919061271a565b905092915050565b6003548411156121d3576040517f08c379a00000000000000000000000000000000000000000000000000000000081526004016121ca90613181565b60405180910390fd5b6000600485815481106121e9576121e8612bf5565b5b90600052602060002090600502019050838160020181905550828160030181905550818160040160006101000a81548160ff0219169083151502179055507f079afa6bf97848da4b0c30dd60950d920ef31858738b2fc4272b236ed4c76a2c60035460008054906101000a900473ffffffffffffffffffffffffffffffffffffffff16868686604051612280959493929190612ba2565b60405180910390a15050505050565b6040518060a0016040528060008152602001600073ffffffffffffffffffffffffffffffffffffffff16815260200160008152602001600081526020016000151581525090565b600080fd5b600073ffffffffffffffffffffffffffffffffffffffff82169050919050565b6000612306826122db565b9050919050565b612316816122fb565b811461232157600080fd5b50565b6000813590506123338161230d565b92915050565b60006020828403121561234f5761234e6122d6565b5b600061235d84828501612324565b91505092915050565b7f4e487b7100000000000000000000000000000000000000000000000000000000600052602160045260246000fd5b600381106123a6576123a5612366565b5b50565b60008190506123b782612395565b919050565b60006123c7826123a9565b9050919050565b6123d7816123bc565b82525050565b60006020820190506123f260008301846123ce565b92915050565b6000612403826122db565b9050919050565b612413816123f8565b82525050565b600060208201905061242e600083018461240a565b92915050565b6000819050919050565b61244781612434565b811461245257600080fd5b50565b6000813590506124648161243e565b92915050565b6000602082840312156124805761247f6122d6565b5b600061248e84828501612455565b91505092915050565b60008115159050919050565b6124ac81612497565b82525050565b60006020820190506124c760008301846124a3565b92915050565b6124d681612497565b81146124e157600080fd5b50565b6000813590506124f3816124cd565b92915050565b60008060008060808587031215612513576125126122d6565b5b600061252187828801612324565b945050602061253287828801612455565b935050604061254387828801612455565b9250506060612554878288016124e4565b91505092959194509250565b61256981612434565b82525050565b612578816122fb565b82525050565b600060a0820190506125936000830188612560565b6125a0602083018761256f565b6125ad6040830186612560565b6125ba6060830185612560565b6125c760808301846124a3565b9695505050505050565b60006040820190506125e66000830185612560565b6125f3602083018461240a565b9392505050565b612603816123f8565b811461260e57600080fd5b50565b600081359050612620816125fa565b92915050565b60006020828403121561263c5761263b6122d6565b5b600061264a84828501612611565b91505092915050565b60006020820190506126686000830184612560565b92915050565b600082825260208201905092915050565b7f63617220616c726561647920656e726f6c6c6564000000000000000000000000600082015250565b60006126b560148361266e565b91506126c08261267f565b602082019050919050565b600060208201905081810360008301526126e4816126a8565b9050919050565b7f4e487b7100000000000000000000000000000000000000000000000000000000600052601160045260246000fd5b600061272582612434565b915061273083612434565b925082821015612743576127426126eb565b5b828203905092915050565b7f7269646520696e206e6f7420636f6e6669726d65640000000000000000000000600082015250565b600061278460158361266e565b915061278f8261274e565b602082019050919050565b600060208201905081810360008301526127b381612777565b9050919050565b7f726964652077617320726566756e646564000000000000000000000000000000600082015250565b60006127f060118361266e565b91506127fb826127ba565b602082019050919050565b6000602082019050818103600083015261281f816127e3565b9050919050565b7f526964652068617320616c726561647920636f6d706c65746564206f7220636160008201527f6e63656c65640000000000000000000000000000000000000000000000000000602082015250565b600061288260268361266e565b915061288d82612826565b604082019050919050565b600060208201905081810360008301526128b181612875565b9050919050565b60006040820190506128cd6000830185612560565b6128da60208301846123ce565b9392505050565b7f796f75206d7573742073656c6563742073656174206e756d6265720000000000600082015250565b6000612917601b8361266e565b9150612922826128e1565b602082019050919050565b600060208201905081810360008301526129468161290a565b9050919050565b7f2063757272656e746c7920796f752063616e6e6f7420726566756e6400000000600082015250565b6000612983601c8361266e565b915061298e8261294d565b602082019050919050565b600060208201905081810360008301526129b281612976565b9050919050565b600081905092915050565b50565b60006129d46000836129b9565b91506129df826129c4565b600082019050919050565b60006129f5826129c7565b9150819050919050565b7f4661696c656420746f2073656e64204574686572000000000000000000000000600082015250565b6000612a3560148361266e565b9150612a40826129ff565b602082019050919050565b60006020820190508181036000830152612a6481612a28565b9050919050565b7f636172206973206e6f7420656e726f6c6c656400000000000000000000000000600082015250565b6000612aa160138361266e565b9150612aac82612a6b565b602082019050919050565b60006020820190508181036000830152612ad081612a94565b9050919050565b7f76656869636c65206973206e6f74206672656500000000000000000000000000600082015250565b6000612b0d60138361266e565b9150612b1882612ad7565b602082019050919050565b60006020820190508181036000830152612b3c81612b00565b9050919050565b6000819050919050565b6000612b68612b63612b5e846122db565b612b43565b6122db565b9050919050565b6000612b7a82612b4d565b9050919050565b6000612b8c82612b6f565b9050919050565b612b9c81612b81565b82525050565b600060a082019050612bb76000830188612560565b612bc46020830187612b93565b612bd16040830186612560565b612bde6060830185612560565b612beb60808301846124a3565b9695505050505050565b7f4e487b7100000000000000000000000000000000000000000000000000000000600052603260045260246000fd5b6000612c2f82612434565b91507fffffffffffffffffffffffffffffffffffffffffffffffffffffffffffffffff821415612c6257612c616126eb565b5b600182019050919050565b7f706c6561736520636865636b20796f75722062616c616e636500000000000000600082015250565b6000612ca360198361266e565b9150612cae82612c6d565b602082019050919050565b60006020820190508181036000830152612cd281612c96565b9050919050565b7f72696465206973206e6f7420636f6e6669726d65640000000000000000000000600082015250565b6000612d0f60158361266e565b9150612d1a82612cd9565b602082019050919050565b60006020820190508181036000830152612d3e81612d02565b9050919050565b6000612d5082612434565b9150612d5b83612434565b9250827fffffffffffffffffffffffffffffffffffffffffffffffffffffffffffffffff03821115612d9057612d8f6126eb565b5b828201905092915050565b7f706c656173652072657669657720746865206465706f73697400000000000000600082015250565b6000612dd160198361266e565b9150612ddc82612d9b565b602082019050919050565b60006020820190508181036000830152612e0081612dc4565b9050919050565b7f72696465206973206e6f74206163746976650000000000000000000000000000600082015250565b6000612e3d60128361266e565b9150612e4882612e07565b602082019050919050565b60006020820190508181036000830152612e6c81612e30565b9050919050565b6000604082019050612e886000830185612560565b612e956020830184612b93565b9392505050565b7f74686520636172206973206e6f7420617661696c61626c650000000000000000600082015250565b6000612ed260188361266e565b9150612edd82612e9c565b602082019050919050565b60006020820190508181036000830152612f0181612ec5565b9050919050565b7f7468657265206973206e6f7420656e6f75676820737061636520696e2074686560008201527f2063617200000000000000000000000000000000000000000000000000000000602082015250565b6000612f6460248361266e565b9150612f6f82612f08565b604082019050919050565b60006020820190508181036000830152612f9381612f57565b9050919050565b600060c082019050612faf6000830189612560565b612fbc6020830188612b93565b612fc96040830187612560565b612fd66060830186612560565b612fe36080830185612560565b612ff060a08301846124a3565b979650505050505050565b7f4e487b7100000000000000000000000000000000000000000000000000000000600052601260045260246000fd5b600061303582612434565b915061304083612434565b9250826130505761304f612ffb565b5b828204905092915050565b60006080820190506130706000830187612560565b61307d6020830186612560565b61308a6040830185612560565b61309760608301846124a3565b95945050505050565b7f636172206973206e6f7420636f6e6669726d696e670000000000000000000000600082015250565b60006130d660158361266e565b91506130e1826130a0565b602082019050919050565b60006020820190508181036000830152613105816130c9565b9050919050565b600060408201905061312160008301856124a3565b61312e60208301846123ce565b9392505050565b7f496e76616c696420726567697374726174696f6e206e756d6265720000000000600082015250565b600061316b601b8361266e565b915061317682613135565b602082019050919050565b6000602082019050818103600083015261319a8161315e565b905091905056fea2646970667358221220196f130438f622cfe8904a1a0b4f3de667b6424af58787614f4266ce4fcd0eed64736f6c634300080b0033",
  "immutableReferences": {},
  "source": "// SPDX-License-Identifier: MIT\npragma solidity 0.8.11;\nimport \"@openzeppelin/contracts/utils/math/SafeMath.sol\";\n\n/// @title Autonomus vehicles ridesharing\n/// @author Soultana (Tania) Papasotiriou\n/// @notice FOR FUTURE USE  THIS  CONTRACT WILL BE A SEPARATED IN CAR, USER, AND RIDE CONTRACTS\n/// @notice You can use this contract for only the most basic ridesharing call\n/// @dev All function calls are currently implemented without side effects\n/// @custom:experimental This is an experimental contract.\n\ncontract AvRide {\n    using SafeMath for uint256;\n\n    //CAR VARIABLES\n\n    address payable carAdd;\n    mapping(address => bool) private enrolledCar;\n\n    address[] carList;\n    uint256 CarID;\n\n    /// @notice vehicle profile\n    /// @custom:futureuse additional info can be added like location klm rating functions etc.\n    struct CarProf {\n        uint256 carID;\n        address payable carAdd;\n        uint256 pricePerKm;\n        uint256 freeSpace; // number of available seating areas in the veicle.\n        bool Free;\n    }\n\n    CarProf[] public carProfs;\n\n    /// @notice logs for front end\n    event LogNewCar(\n        uint256 indexed carID,\n        address indexed carAdd,\n        bool success\n    );\n    event LogCarProfile(\n        uint256 carID,\n        address carAdd,\n        uint256 pricePerKm,\n        uint256 freeSpace,\n        bool Free\n    );\n    event ProfileUpdated(\n        uint256 carID,\n        address carAdd,\n        uint256 pricePerKm,\n        uint256 freeSpace,\n        bool Free\n    );\n    event LogSpecificCar(\n        uint256 carID,\n        address carAdd,\n        uint256 pricePerKm,\n        uint256 freeSpace,\n        bool Free\n    );\n    event LogCarLists(\n        uint256 carID,\n        address carAdd,\n        uint256 pricePerKm,\n        uint256 freeSpace,\n        bool Free\n    );\n\n    //CAR FUNCTIONS\n\n    /// @notice Checks if vehicle exists in array a.k.a already enrolled\n    ///@dev returns bool\n    function isCarNew(address _carAdd) private returns (bool Exists) {\n        require(enrolledCar[_carAdd] != true, \"car already enrolled\");\n\n        enrolledCar[_carAdd] = true;\n        return (enrolledCar[_carAdd]);\n    }\n\n    /// @notice Registrers a vehicle\n    function enrollCar(address payable _carAdd) public {\n        require(isCarNew(_carAdd) == true, \"car already enrolled\"); /// @notice car should not exist in array\n\n        carAdd = _carAdd; /// @notice set the car address\n        enrolledCar[_carAdd] = true; /// @notice change the status\n        carList.push(_carAdd);\n\n        CarID = carList.length - 1; /// @notice set registration ID\n        emit LogNewCar(CarID, _carAdd, enrolledCar[_carAdd]);\n    }\n\n    /// @notice Sets vehicles Ride parameters\n    /// @dev This should run after straight enrollment.\n    /// @custom:futureuse it will be posible to select vehicle from enrolement list\n\n    function setCarProfile(\n        address payable _carAdd,\n        uint256 _pricePerKm,\n        uint256 _freeSpace,\n        bool _Free\n    ) public {\n        require(carAdd == _carAdd, \"car is not enrolled\");\n\n        CarProf memory carProf;\n\n        carProf.carID = CarID;\n        carProf.carAdd = _carAdd;\n        carProf.pricePerKm = _pricePerKm;\n        carProf.freeSpace = _freeSpace;\n        carProf.Free = _Free;\n\n        ///@notice in case of no free space but vehicle still declared as free.\n        if (carProf.freeSpace == 0 && carProf.Free == true) {\n            revert(\"vehicle is not free\");\n        }\n\n        emit LogCarProfile(CarID, carAdd, _pricePerKm, _freeSpace, _Free);\n\n        carProfs.push(carProf);\n    }\n\n    /// @notice updates vehicles state after ride\n    function updateCarInfo(\n        uint256 _carIndex,\n        uint256 _pricePerKm,\n        uint256 _freeSpace,\n        bool _Free\n    ) private {\n        require(_carIndex <= CarID, \"Invalid registration number\");\n\n        CarProf storage carProf = carProfs[_carIndex];\n\n        carProf.pricePerKm = _pricePerKm;\n        carProf.freeSpace = _freeSpace;\n        carProf.Free = _Free;\n\n        emit ProfileUpdated(CarID, carAdd, _pricePerKm, _freeSpace, _Free);\n    }\n\n    //USER VARIABLES\n\n    address public user = msg.sender;\n\n    /// @custom:futureuse the ride might be on behalf of someone\n    mapping(address => bool) private userCalledRide;\n    uint256 ScarID;\n    address payable ScarAdd;\n    uint256 ScarPrice;\n    uint256 ScarSpace;\n    bool ScarFree;\n\n    /// @custom:futureuse other criteria like location rating etc will be in the struct.\n    struct RideProfile {\n        uint256 seatNo;\n    }\n\n    RideProfile[] internal rideProfiles;\n\n    /// @notice logs for front end\n    event LogCallRide(address accountAddress);\n    event LogRidePayment(address accountAddress, uint256 ridefee);\n    event LogRideInfo(\n        uint256 carID,\n        address SCarAdd,\n        uint256 ridePrice,\n        uint256 seatNo,\n        uint256 freeSpace,\n        bool Free\n    );\n    event LogRideUpdated(uint256 _seatNo);\n\n    modifier onlyUser() {\n        require(userCalledRide[msg.sender] == true);\n        _;\n    }\n\n    //USER FUNCTIONS\n\n    /// @notice the user enrols by stating the number of required seats for the ride\n    /// @custom:futureuse this enrollement addresses  might be stored in an array keeping log on the users\n    /// @custom:futureuse several criteria might be added like from location, to location, rating preference etc.\n    /// @dev returns bool\n    function enrollUser(uint256 _seatNo) public returns (bool) {\n        if (_seatNo <= 0) {\n            revert(\"you must select seat number\");\n        }\n\n        userCalledRide[msg.sender] = true;\n\n        rideProfiles.push(RideProfile(_seatNo));\n\n        /// @dev in case the user changes number of requires seats\n        updateRideInfo(_seatNo);\n\n        emit LogCallRide(msg.sender);\n        return userCalledRide[msg.sender];\n    }\n\n    /// @notice returns all registered cars\n    /// @dev returns tuple\n    function getCarProfileList() public //returns (CarProf[] memory)\n    {\n        //i feel that this is not the most optimum way but this is what i came out with\n        //event  for Car Lists  append entries by  looping through the list\n        for (uint256 i = 0; i <= CarID; i++) {\n            CarProf storage carProf = carProfs[i];\n            emit LogCarLists(\n                i,\n                carProf.carAdd,\n                carProf.pricePerKm,\n                carProf.freeSpace,\n                carProf.Free\n            );\n        }\n        //return carProfs;\n    }\n\n    /// @notice select the car and review the ride preferences\n    /// @dev returns checking values of price and address\n    function selectCarReviewRide(uint256 _carID)\n        public\n        returns (uint256, address)\n    {\n        /// @dev futureuse in case were the caller ight neet to call several rides and 0 might chanje with rideIndex\n        RideProfile memory rideProfile = rideProfiles[0];\n        CarProf memory carProf = carProfs[_carID];\n\n        require(carProf.Free == true, \"the car is not available\");\n        require(\n            rideProfile.seatNo <= carProf.freeSpace,\n            \"there is not enough space in the car\"\n        );\n\n        ScarID = _carID;\n        ScarAdd = carProf.carAdd;\n        ScarPrice = carProf.pricePerKm;\n        ScarSpace = carProf.freeSpace;\n        ScarFree = carProf.Free;\n\n        emit LogRideInfo(\n            _carID,\n            ScarAdd,\n            ScarPrice,\n            rideProfile.seatNo,\n            carProf.freeSpace,\n            carProf.Free\n        );\n\n        return (ScarPrice, ScarAdd);\n    }\n\n    // RIDE VARIABLES\n\n    bool confirmedByCar;\n    bool refundState;\n\n    uint256 CancelFee;\n    uint256 refund;\n\n    /// @notice the states of the ride\n    enum RideStatus {\n        Free,\n        Confirmed,\n        Started\n    }\n    RideStatus public status;\n\n    /// @custom:futureuse some additional confiramtion criteria might be added\n    constructor() {\n        user = payable(msg.sender);\n    }\n\n    /// @notice required for escrow\n    mapping(address => uint256) public deposits;\n\n    /// @notice logs for front end\n    event TxConfirmed(uint256 deposit);\n    event RideConfirmation(bool rideIsConfirmed, RideStatus);\n    event RideStarts(RideStatus);\n    event ride_carUpdate(\n        uint256 ScarID,\n        uint256 ScarPrice,\n        uint256 Rspace,\n        bool Rfree\n    );\n    event Revert_CarUpdate(\n        uint256 ScarID,\n        uint256 ScarPrice,\n        uint256 Rspace,\n        bool Rfree\n    );\n    event RideCompletes(RideStatus);\n    event TxReceived(uint256 payment, address SCar);\n    event RideCanceled(uint256 payment, RideStatus);\n    event UserRefunded(uint256 payment);\n    event StatusReset(bool confirmedByCar);\n\n    // RIDE FUNCTIONS\n\n    /// @notice confirms the ride and holds a deposit in escrow\n    /// @dev payment in wei\n    function confirmRide() public payable onlyUser {\n        require(msg.value >= ScarPrice, \"please check your balance\");\n        if (carConfirmation() != true) {\n            revert(\"ride is not confirmed\");\n        }\n\n        refundState = false; /// @notice resets refund state\n\n        updateRideState(); /// @notice reserves the requested seats\n\n        deposits[ScarAdd] += ScarPrice; /// @notice pays in wei\n\n        if (deposits[ScarAdd] < ScarPrice) {\n            revert(\"please review the deposit\");\n        }\n\n        emit TxConfirmed(deposits[ScarAdd]);\n    }\n\n    /// @custom:futureuse car will need to confirm taking into acount direction and location\n    /// @notice change Car confiramtion state\n    /// @notice this might prove useful in case of simultaneus confirmations\n    /// @dev returns bool\n    function carConfirmation() internal returns (bool) {\n        RideProfile memory rideProfile = rideProfiles[0];\n        require(ScarSpace >= rideProfile.seatNo, \"car is not confirming\");\n\n        confirmedByCar = true;\n\n        status = RideStatus.Confirmed;\n\n        emit RideConfirmation(confirmedByCar, status);\n\n        return (confirmedByCar);\n    }\n\n    /// @notice starts the ride\n    function startCarRide() public onlyUser {\n        require(status == RideStatus.Confirmed, \"ride in not confirmed\");\n        require(refundState != true, \"ride was refunded\");\n        status = RideStatus.Started;\n\n        emit RideStarts(status);\n    }\n\n    /// @notice completes the ride and transfers payment from escrow\n    function conmpleteCarRide() public onlyUser {\n        require(status == RideStatus.Started, \"ride is not active\");\n\n        /// @notice payment tnx\n        uint256 transferedFee = deposits[ScarAdd];\n        ScarAdd.transfer(transferedFee);\n        deposits[ScarAdd] = 0;\n\n        emit TxReceived(transferedFee, ScarAdd);\n\n        /// @notice change the ride status\n        status = RideStatus.Free;\n        updateRideState();\n\n        /// @notice refund the user in case of bigger deposit value\n        userRefund();\n\n        emit RideCompletes(status);\n    }\n\n    function div(uint256 a, uint256 b) internal pure returns (uint256) {\n        return a / b;\n    }\n\n    /// @notice cancels the ride\n    function RideIsCanceled() public onlyUser {\n        if (status == RideStatus.Free) {\n            revert(\"Ride has already completed or canceled\");\n        }\n\n        /// @notice in case of cancelation after starting the ride\n        /// @custom:futureuse this canselation will be associated with the covered distance\n        if (status == RideStatus.Started) {\n            /// @notice  assumption 1/2 of the price penalty in case of canselation before start\n            /// @custom:futureuse the distance covered until cancelation\n            CancelFee = deposits[ScarAdd].div(2);\n\n            /// @notice transfer fee\n            deposits[ScarAdd] = 0;\n            ScarAdd.transfer(CancelFee);\n        } else if (status == RideStatus.Confirmed) {\n            /// @notice assumption 1/4 of the price penalty in case of canselation before start\n            /// @custom:futureuse the distance between car location and from User location\n            CancelFee = deposits[ScarAdd].div(4);\n\n            /// @notice transfer fee\n            deposits[ScarAdd] = 0;\n            ScarAdd.transfer(CancelFee);\n        }\n\n        /// @notice revert vehicle and ride state\n        status = RideStatus.Free;\n        updateRideState();\n\n        ///@notice refund user\n        userRefund();\n\n        emit RideCanceled(CancelFee, status);\n    }\n\n    // HELP FUNCTIONS\n\n    /// @notice update ride info registration\n    function updateRideInfo(uint256 _seatNo) private {\n        /// @dev futureuse 0=index when we store rides\n        RideProfile storage rideProfile = rideProfiles[0];\n        if (rideProfile.seatNo != _seatNo) {\n            rideProfile.seatNo = _seatNo;\n        }\n        emit LogRideUpdated(_seatNo);\n    }\n\n    ///@notice returns remaining value to users account\n    function userRefund() public payable onlyUser returns (bool) {\n        /// @notice to avoid refund before completion\n        /// @custom:futureuse this will work in assosiatin with location and distance covered\n        require(\n            status == RideStatus.Confirmed || status == RideStatus.Free,\n            \" currently you cannot refund\"\n        );\n\n        /// @notice get the amount of Ether stored in this contract\n        refund = address(this).balance;\n\n        (bool success, ) = user.call{value: refund}(\"\");\n        require(success, \"Failed to send Ether\");\n\n        /// @notice reset the ride state\n        ResetRide();\n        refundState = true;\n\n        emit UserRefunded(refund);\n        return (refundState);\n    }\n\n    ///@notice updates the car state and available seats after starting  the ride\n    function updateRideState() private {\n        RideProfile memory rideProfile = rideProfiles[0];\n        CarProf memory carProf = carProfs[ScarID];\n\n        uint256 Rspace;\n        bool Rfree;\n\n        /// @notice returns state and seats when ride is canceled or completed\n        if (status == RideStatus.Free) {\n            Rspace = carProf.freeSpace.add(rideProfile.seatNo);\n            Rfree = true;\n\n            /// @notice returns state and seats when ride is confirmed\n        } else if (status == RideStatus.Confirmed) {\n            Rspace = ScarSpace.sub(rideProfile.seatNo);\n            Rfree;\n\n            if (rideProfile.seatNo < ScarSpace) {\n                Rfree = true;\n            } else {\n                Rfree = false;\n            }\n        }\n\n        // @notice uodates the Vehicle ride status\n        updateCarInfo(ScarID, ScarPrice, Rspace, Rfree);\n        confirmedByCar = false;\n\n        emit Revert_CarUpdate(ScarID, carProf.pricePerKm, Rspace, Rfree);\n    }\n\n    /// @notice resets cars confirmation\n    function ResetRide() internal onlyUser {\n        confirmedByCar = false;\n        emit StatusReset(confirmedByCar);\n    }\n\n    receive() external payable {\n        revert();\n    }\n\n    fallback() external payable {\n        revert();\n    }\n}\n",
  "sourcePath": "/home/tafpi/Desktop/git_sol/AvRide_final-project/contracts/AvRide_sim_com.sol",
  "compiler": {
    "name": "solc",
    "version": "0.8.11+commit.d7f03943.Emscripten.clang"
  },
  "schemaVersion": "3.4.3",
  "updatedAt": "2022-01-14T10:46:18.651Z",
  "networkType": "ethereum",
  "devdoc": {
    "author": "Soultana (Tania) Papasotiriou",
    "custom:experimental": "This is an experimental contract.",
    "details": "All function calls are currently implemented without side effects",
    "kind": "dev",
    "methods": {
      "confirmRide()": {
        "details": "payment in wei"
      },
      "constructor": {
        "custom:futureuse": "some additional confiramtion criteria might be added"
      },
      "enrollUser(uint256)": {
        "custom:futureuse": "this enrollement addresses  might be stored in an array keeping log on the usersseveral criteria might be added like from location, to location, rating preference etc.",
        "details": "returns bool"
      },
      "getCarProfileList()": {
        "details": "returns tuple"
      },
      "selectCarReviewRide(uint256)": {
        "details": "returns checking values of price and address"
      },
      "setCarProfile(address,uint256,uint256,bool)": {
        "custom:futureuse": "it will be posible to select vehicle from enrolement list",
        "details": "This should run after straight enrollment."
      }
    },
    "stateVariables": {
      "userCalledRide": {
        "custom:futureuse": "the ride might be on behalf of someone"
      }
    },
    "title": "Autonomus vehicles ridesharing",
    "version": 1
  },
  "userdoc": {
    "events": {
      "LogCallRide(address)": {
        "notice": "logs for front end"
      },
      "LogNewCar(uint256,address,bool)": {
        "notice": "logs for front end"
      },
      "TxConfirmed(uint256)": {
        "notice": "logs for front end"
      }
    },
    "kind": "user",
    "methods": {
      "RideIsCanceled()": {
        "notice": "cancels the ride"
      },
      "confirmRide()": {
        "notice": "confirms the ride and holds a deposit in escrow"
      },
      "conmpleteCarRide()": {
        "notice": "completes the ride and transfers payment from escrow"
      },
      "deposits(address)": {
        "notice": "required for escrow"
      },
      "enrollCar(address)": {
        "notice": "Registrers a vehicle"
      },
      "enrollUser(uint256)": {
        "notice": "the user enrols by stating the number of required seats for the ride"
      },
      "getCarProfileList()": {
        "notice": "returns all registered cars"
      },
      "selectCarReviewRide(uint256)": {
        "notice": "select the car and review the ride preferences"
      },
      "setCarProfile(address,uint256,uint256,bool)": {
        "notice": "Sets vehicles Ride parameters"
      },
      "startCarRide()": {
        "notice": "starts the ride"
      },
      "userRefund()": {
        "notice": "returns remaining value to users account"
      }
    },
    "notice": "FOR FUTURE USE  THIS  CONTRACT WILL BE A SEPARATED IN CAR, USER, AND RIDE CONTRACTSYou can use this contract for only the most basic ridesharing call",
    "version": 1
  }
}